S01500005A334E637048774D4731763635312E7333379B
S31500004000801B0020B1C1010085A6000089A6000022
S31500004010A70A0A010042000004180FAC1065F1005F
S31500004020000000000000000000000000000000008A
S3150000403000000000940503000000000000000000DE
S315000040400000000000000000FFFFFFFFFFFFFFFF72
S31500004050FFFFFFFF007003000000000000000400E7
S31500004060FFFFFFFFFFFFFFFF100000000000000042
S31500004070000000000000000000000000000000003A
S3150000408080420020803600208036002080360020C6
S31500004090801B0020FC2D0300780203002012002064
S311000040A0EF110020000004008042002008
S31500004200801B0020B1C1010085A6000089A6000020
S3150000421091A600008DA6000095A60000ADC1010084
S31500004220ADC10100ADC10100ADC10100ADC10100CC
S3150000423099A60000ADC10100ADC10100ADC10100EC
S3150000424029580000FDA90100ADAA000079A50100CA
S3150000425069AA010009AA010021AA010001AA010018
S31500004260654F000039500000156A00002DBB0000A4
S3150000427000A8000000A80000F543000000A8000008
S3150000428000A800005D50000000A8000000A8000083
S3150000429000A8000000A8000000A8000000A8000078
S315000042A000A8000000A8000000A800006DAA0100F8
S315000042B005AA0100B5550000ADAA010000A800003E
S30D000042C0E594010000A80000CE
S315000042C8F8B500BFF8BC08BC9E467047F8B500BFF5
S315000042D8F8BC08BC9E46704710B5054C237833B920
S315000042E8044B13B10448AFF300800123237010BDBB
S315000042F88020002000000000F428030008B5034BC6
S315000043081BB103490348AFF3008008BD0000000055
S3150000431884200020F4280300154B002B08BF134BFC
S315000043289D46A3F5803A00218B460F461348144A4A
S31500004338121A2BF08AFF0F4B002B00D098470E4B12
S31500004348002B00D098470020002104000D000D48DE
S31500004358002802D00C48AFF300802BF047FF20005E
S31500004368290009F091FD2BF02DFF00BF0000080081
S31500004378801B0020000000000000000080200020B4
S3150000438880360020000000000000000070B5134CC5
S315000043988A00A31822449B781D09062D98BF104E43
S315000043A803F00F0394BF755DFF25062B05719ABFB1
S315000043B80C4DEB5CFF234371FF3B18BF0123837150
S315000043C8D37014F82130084C437053788370014633
S315000043D8204602F091FB0123A36070BD9C200020BB
S315000043E8BF040300B8040300002000407FB522493B
S315000043F822480022FF23CDE901228DF809300378EF
S315000044084C6C8D6B03922C40E407DBB228D5022B4B
S3150000441826D88C6C1A4901EB8301A5B2CE781949C6
S3150000442806B326041ED521F813201749012202FADD
S3150000443803F30A781343154A0B701378CBB100239C
S315000044481478DC40E407D9B20FD50170107801243E
S3150000445804FA03F34340DBB201A81370FFF796FF93
S3150000446804B070BD21F81350DFE70133032BE7D101
S31500004478F6E703230370F3E700200040A820002096
S315000044889C200020AC200020AA200020A920002083
S315000044980120704701207047012814BF0220002020
S315000044A8704701207047002070470120704701209F
S315000044B87047002070470120704700207047002091
S315000044C870470120704700207047012070477047E9
S315000044D87047000010B5104C1049A16103232166EE
S315000044E80F491022C4E904330E4BE361C4E91912DB
S315000044F800230D49A362E01D6362E3622367E36656
S31500004508636722622BF0A9FE084920462BF0A5FE18
S315000045182023A37110BD00BF00300020C60403008D
S31500004528B2200020C2200020CF040300D3040300D9
S315000045382DE9F84F1F4B16461A7881468A46984643
S315000045480AB9FFF7C7FF182707FB09873D6FD7F892
S315000045586CB05D452BD9BC6E796E641BB44228BF1E
S3150000456834462944504622462BF064FEBB6E254449
S31500004578A244361BAB4208BF0025ABEB050B5E45D4
S3150000458828BF5E4656B1182303FB09833246596E87
S31500004598504629442BF04EFE3444354424B11823A2
S315000045A803FB0988C8F870502046BDE8F88F002438
S315000045B8E3E700BF00300020F8B504460E4617466C
S315000045C802F0B1FE3A46054631462046FFF7B0FFEF
S315000045D80446284602F0ADFE2046F8BD2DE9F8430C
S315000045E8124D1E462B788146884617460BB9FFF7AB
S315000045F871FF02F098FE696900244FF0180C0CFB55
S3150000460804535A6E2AB10134A142F8DC4FF0FF3444
S3150000461807E0A142FADDC3E918989F661A67DA66C9
S315000046285E6702F086FE2046BDE8F883003000206B
S31500004638FFF750BF012270B51146042002F0F2FCC4
S315000046481A4B1B4D1A681B4842F001021A60DA68B9
S315000046584FF0604442F08072DA60174BC4F8B03FFE
S3150000466800260223C4F8006EC4F8806EC5F8F03040
S3150000467802F000FC00F5D520104B114A00F2FC4070
S31500004688B0FBF3F00F4B01382861C4F8406E1A608E
S315000046980D4BC4F8803E4FF48073C5F80433D4F844
S315000046A8003E43F48073C4F8003E70BDF0ED00E0B0
S315000046B8000004E006000E0055CEACC5F8590D0002
S315000046C8FF030040001000E00D00010010B50121B5
S315000046D8104802F0EFFA104B01241C60002003F08A
S315000046E825FA234604220221052003F077FA2046FC
S315000046F817F03AFBFFF79EFF17F03CFBFFF798FF12
S315000047082346402205490648FFF768FF054B18600F
S31500004718C00F10BD00250A0010881442D2200020C0
S31500004728DA040300881B0020024B1868003018BF03
S3150000473801207047F0ED00E0054A4170D12303706F
S315000047481378C370090A8170591C117004207047C8
S31500004758122100202DE9F84F2E4F3B681C5C032CD4
S31500004768804655D917F067FE0534DFF8ACA0E4B2E9
S3150000477881464FF6FF7B0025DAF800304BB1AC4294
S3150000478807D917F058FEA0EB090080B2B0F5FA7FFA
S3150000479804D9601B18BF0120BDE8F88F9DB3012D11
S315000047A815D13B6813F8085002264FF06043D3F83A
S315000047B8802ED10709D5D3F8002ED20505D519467E
S315000047C80A6A002AFCD083F820503546D4E7E31E4F
S315000047D86E1C9D42F6B202D15FFA8BF5E5E7A31E81
S315000047E89D4202D1CBF30725DFE7631E9D420DD01C
S315000047F8A91EC9B240461EF07FFD5946054605F07A
S31500004808D3FE8346D1E75B250126CEE75D25CCE7B7
S315000048180120C1E7181C0020F0ED00E010B50B4B95
S3150000482890B0402269461868FFF7C6FE58B1C1B273
S3150000483868461EF0EBFC04460146122017F034FCCD
S3150000484820461EF087FB10B010BD00BF881B002055
S3150000485870B5164685180AB9304470BD01F00F03C5
S315000048680A2B34BF302437242344013A090905F8B2
S31500004878013DD2B2EFE70000F0B5F9B100281CDA25
S315000048882D23B0F1004F137000D04042012115E0EE
S31500004898801B8642ECB205F10105F9D904B927B1A6
S315000048A84D1C303454540127E9B20133092B09D180
S315000048B8303050540131C8B2F0BD00210023DFF872
S315000048C80CC01F465CF823600025E2E7EC040300F1
S315000048D82DE9F04F95B04FF0000B02AC81468A46A1
S315000048E817461D465E46A0463B7863B902ABE41AF6
S315000048F8E4B2224619465046C847002840F093803D
S315000049083444E0B290E0252B13D0BBF1000F14D14C
S315000049182370013412AB9C426DD3A4EB0804E4B2B5
S31500004928224641465046C84700287CD12644F6B25E
S3150000493860E0BBF1000F00D101373B78632B00F034
S3150000494892801BD8392B09D8302B80F09E80002BFB
S31500004958CCD0252B51D04FF0000BDBE7582B00F0BD
S315000049688B80622BF7D12B6801936B6800934FF00D
S31500004978000B009B9B4543D10835ECE7702B1ED0F6
S3150000498817D8642B01D06C2BE5D16C2B05F1040BE1
S3150000499828686CD17B78752B14BF0121002101D0C2
S315000049A8642B00D101372246FFF766FF04445D46B3
S315000049B8D1E7752BE9D0782B5ED0732BCBD1A4EB3E
S315000049C80804E4B2224602A9504605F1040B2D68F4
S315000049D8C84740BB2644F6B2C4B201302B5D002B53
S315000049E8FAD1224629465046C847E0B926445D46CC
S315000049F8F6B283464446013776E723700134AAE7C0
S31500004A08019B204613F80B100222FFF721FF12AB79
S31500004A18984204460ED3A0EB0804E4B22246414667
S31500004A285046C84718B1002015B0BDE8F08F264497
S31500004A38F6B24446009B013B5B4582BF20232370A8
S31500004A48013412AB9C420BD3A4EB0804E4B2224611
S31500004A5841465046C8470028E5D12644F6B24446A2
S31500004A680BF1010B85E72B6823700435C6E7752B18
S31500004A780CBF0021012196E7204602222978FFF77C
S31500004A88E7FE05F1040B044691E77A7802F0DF02A7
S31500004A98582A19D1322B07F1010B09D129882F1D64
S31500004AA804222046FFF7D4FE3D4604465F4652E7F9
S31500004AB8342B09D12F1D2D680422290C2046FFF717
S31500004AC8C7FE0422A9B2EDE74FF0010B22E700006A
S31500004AD82DE9F04F9B46584B85B01B78109F9DF8E3
S31500004AE844A0DDF85080064689461546002B00F09E
S31500004AF89280072A00F291800E9B002B00F08D8091
S31500004B080F9B002B00F08980129BB3F5006F00F312
S31500004B188480012801D1002F7FD0484B03EB051371
S31500004B281B7B002B7BD0464C1022002168462BF0BD
S31500004B388CFB04EB45141022B9F1000F5CD14946F1
S31500004B4820462BF082FBA37843F01003A370E3788A
S31500004B5843F03003E370BAF1000F03D1DBB243F040
S31500004B680303E3703649129BCDF800B06A01013B96
S31500004B78885A01EB020C63F30E1088520E9BCCF890
S31500004B8808300F9BCCF804309DF84C109CF8033085
S31500004B98012E61F383038CF8033042D11323CCF83A
S31500004BA80C309CE80F000CF1100E8EE80F00DCF8B4
S31500004BB81C20CCF814706FF0030161F39F02B9F161
S31500004BC8010FCCF81C2004D10F9BCCF81830CCF878
S31500004BD804701A492A018B1841F802800027159A91
S31500004BE85A6028469F605E732246694603F084F839
S31500004BF8384605B0BDE8F08F002120462BF025FB8E
S31500004C081023A3700323E370BAF1000FAAD1DBB215
S31500004C1843F03003A5E70B48EBE70B48E9E70B48F9
S31500004C28E7E7B8F1000FD4D19CF8023068F3041313
S31500004C388CF80230CDE700BF942200201421002012
S31500004C4894210020028000F0018000F0078000F027
S31500004C5838B5104B1B780546BBB1C0B102F063FBF3
S31500004C680D49002301EB0312147B3CB92B60012389
S31500004C781373146002F05DFB204638BD0133082B20
S31500004C88F0D102F056FB0548F7E70548F5E7054871
S31500004C98F3E700BF9422002014210020048000F0CE
S31500004CA8028000F0018000F038B502F03CFB0B4AA8
S31500004CB805460023D1180C7B5CB91033802BF9D13B
S31500004CC802F0CEFF064B28461C7002F032FB204647
S31500004CD838BD284602F02DFB0248F9E714210020CA
S31500004CE894220020058000F00D4B1B7810B5044671
S31500004CF893B1072812D802F016FB0A4B03EB0413EC
S31500004D081A7B2AB100241C7302F013FB204610BD3F
S31500004D1802F00FFB0448FAE70448F8E70448F6E708
S31500004D289422002014210020068000F0028000F062
S31500004D38018000F013B5164B1868019000238DF812
S31500004D48043002F0F0FA134B1C7824B102F0F1FAA1
S31500004D58114802B010BD01221A7002F0EAFA0F4B90
S31500004D681C731C7783F82C4083F83C4083F84C402E
S31500004D7883F85C4083F86C4083F87C4004230DEB91
S31500004D8803008DF8073002F08BFF2046E1E700BFED
S31500004D981005030094220020038000F0142100204F
S31500004DA810B588B00E9C07940D9C06949DF830406B
S31500004DB805940B9C04949DF8284003940024CDE99F
S31500004DC8013400920B46024621462046FFF780FE34
S31500004DD808B010BD10B588B00E9C07940D9C0694BB
S31500004DE89DF8304005940B9C04949DF82840039444
S31500004DF80024CDE9013400920B46024601212046E3
S31500004E08FFF766FE08B010BD08B50A4B1B785BB104
S31500004E1807280BD8084B03EB00131B7B43B1002173
S31500004E2802F034FF002008BD0448FCE70448FAE70E
S31500004E380448F8E79422002014210020028000F09C
S31500004E48018000F0078000F008B50A4B1B785BB1BB
S31500004E5807280BD8084B03EB00131B7B43B1012132
S31500004E6802F014FF002008BD0448FCE70448FAE7EE
S31500004E780448F8E79422002014210020028000F05C
S31500004E88018000F0078000F008B50A4B1B7853B183
S31500004E9807280AD8084B03EB00131B7B3BB102F02B
S31500004EA87DFF002008BD0548FCE70548FAE70548E8
S31500004EB8F8E700BF9422002014210020028000F0A9
S31500004EC8018000F0078000F00D4B1B7893B107288E
S31500004ED812D889B10B4B03EB00131B7B73B10A4B3A
S31500004EE81A6A012303FA00F010401ABF00200B705B
S31500004EF80870704705487047054870470548704769
S31500004F08942200201421002000200E40028000F088
S31500004F18018000F0078000F00B4B1B7810B50C469B
S31500004F2863B107280CD859B1084B03EB00131B7B58
S31500004F3843B102F049FF2060002010BD0448FCE799
S31500004F480448FAE70448F8E79422002014210020D0
S31500004F58028000F0018000F0078000F02DE9F84398
S31500004F68174E326EF36E12EA030800D5FEE7154CAB
S31500004F78DFF854900127002518EA070F16D0236892
S31500004F88B7669BB1A16862680131A1602846984757
S31500004F98637B012B0AD148B909EB4513197B1A7FA4
S31500004FA860F3410160F3410219731A770135082D40
S31500004FB84FEA470704F11004DED1BDE8F88300BFC5
S31500004FC800200E40142100209421002070B5094EBF
S31500004FD80446012504B970BD94FAA4F0B0FA80F02D
S31500004FE805FA00F324EA030456F82030002BF1D022
S31500004FF89847EFE798220020054B4FF40032C3F894
S3150000500880211A604FF40072C3F880211A60704735
S3150000501800E100E038B504460D4602F084F9034B7A
S3150000502843F82450BDE8384002F083B9982200209E
S31500005038074BD3F82804D3F81C24104020F42A5030
S3150000504820F02A004004400CC3F82404FFF7BEBF32
S3150000505800A00040074BD3F82804D3F81C241040BE
S3150000506820F4AA4020F055000004000CC3F82404DC
S31500005078FFF7ACBF00A000402DE9F84F284C4FF0D1
S31500005088000A04F1A00580464FF000094FF0010B15
S31500005098237F84F81DA06BB1D4E90023994508BF86
S315000050A89045104619460AD2B2EB080063EB09018F
S315000050B8C4E900012834AC42EAD1BDE8F88FE37FA1
S315000050C833B92377A369002BF4D084F81DB0F1E730
S315000050D8D4E90267B8EB000069EB010132463B46AA
S315000050E82AF0F0FEB01A67EB030123696269002B08
S315000050F8C4E900010BDD13441D2B6361E2D9461C8C
S3150000510841F100071E3BC4E900676361DAE7D31A79
S315000051181D2B6361D6D910F1FF3641F1FF37F1E750
S31500005128E822002038B5074C0025637F1BB1A36928
S31500005138216A284698470135042D04F12804F4D13C
S3150000514838BD00BFE8220020064B5A6A99690A4012
S31500005158D20705D501221A62034A13680133136080
S31500005168704700BF0020044088230020F0B5194E80
S3150000517800214FF0FF324FF0FF337418257F3DB101
S31500005188D4E900459D4208BF94423CBF22462B46BF
S315000051982831A029F1D1104900240C705C1C08BFE5
S315000051A8B2F1FF3F0C4614D000279F420B496FF01F
S315000051B8640608BF9642086038BF32460849042587
S315000051C802440D6201234A6523704B6A43F00403C7
S315000051D84B62F0BDE8220020E0220020DC220020FD
S315000051E8002004400F4B1B7870B50546BBB102F092
S315000051F89AF80D490023282606FB0312947F14B952
S3150000520835B90A4C07E00133042BF5D1084C02E006
S31500005218012191772B6002F08CF8204670BD054C71
S31500005228FBE700BFE1220020E8220020041000F07E
S31500005238011000F0061000F070B5204D2C78002CF7
S315000052483AD101211E481F4E01F034FD03211E48A4
S3150000525801F068FF01211D48347101F02BFD30462D
S3150000526802F086FE1A49012002F068FE194B1A4818
S315000052785A6A22F4FF6222F007025A6240F2FF726B
S315000052881A62164A9C604FF00051C2F880111160EC
S315000052985A6A42F001025A622146A0222AF0D5FF34
S315000052A80F4B1C700F4B1C700F4B1C600F4B1C6078
S315000052B80F4B1C6001232B70002070BDE1220020DB
S315000052C800050A008C1B002005002400A009140014
S315000052D8951B002000200440E822002000E100E0A1
S315000052E8D8220020E0220020E42200208823002083
S315000052F88C2300202DE9F74F93465C4A127807461F
S3150000530889461E46002A00F0AD80032800F2AC80CC
S3150000531802F009F8564A282404FB07248046A17F90
S31500005328924629B902F005F8524803B0BDE8F08F55
S31500005338BBF1000F08D116B10C993846B047404664
S3150000534801F0F7FF0020F0E74B4A4FF4004C4FF40A
S31500005358FA7000219568A6614FF47A720023ECFB77
S315000053680B012AF0AFFDB9F1010F02460B46C4E95D
S31500005378022309D14FF47A7303FB0BFB1E2303FBAD
S3150000538810B323610F236361282303FB07A30130AE
S315000053984FF0010241F10001C3E900011A770C9AA6
S315000053A883F81F901A62354B1B78002BC7D1344CF3
S315000053B8236801331EBF236801332360314B0193F1
S315000053C81A78E2B9304B2C4E1D6004233362002351
S315000053D86FF064028B4208BF824238BF10462844E9
S315000053E87065736A019A43F00403736201231370AC
S315000053F82368002BA3D02368013B23609FE723681B
S31500005408012BF5D1282303FB07A30026DFF86890B4
S31500005418DFF874B01E77D9F8242022F00402C9F800
S315000054282420DBF80000281AFFF726FEFFF77AFE8D
S3150000543826B9282202FB07A2012010772846FFF783
S3150000544895FE114BD9F808501868D9F85420019BD5
S31500005458A5EB000C121A187801360028C8D0944516
S31500005468D9D2C5E7094860E709485EE7E122002086
S31500005478E8220020031000F000200440D822002073
S31500005488E4220020E0220020DC220020061000F0A2
S31500005498021000F02DE9F843264B1B7805460C460A
S315000054A8002B41D0032841D8002941D001F03BFF09
S315000054B8214B282202FB05339A7F22B901F039FFD6
S315000054C81E48BDE8F8831A7F1AB901F032FF1C4856
S315000054D8F7E7D3E900671B4B9D681B4BD3F80080A1
S315000054E801F027FF0021A5EB08008F4208BF86427E
S315000054F815D3361A67EB0107B046B9464FF47A75E5
S31500005508A8FB052312F5804005FB09334FEAD03284
S3150000551843F1000142EA414222600020D1E74FF000
S3150000552800084FF00009E9E70848CAE70848C8E74D
S315000055380848C6E7E1220020E8220020031000F010
S31500005548051000F000200440DC220020061000F0C0
S31500005558021000F0041000F0F8B501F0E4FE084D62
S31500005568084F2C68BE68FFF7EFFD2B689C42F8D100
S3150000557801F0DFFE0022901944F10001F8BD00BFDA
S3150000558888230020002004402DE910484FF47A743F
S31500005598A0FB04BC1BF5804204FB01CC4CF10003C4
S315000055A8D00B40EA4340BDE8108800002DE9F843D7
S315000055B81A4C01F0B8FE626AA1690A4022F0050198
S315000055C853070546216221D5154AA768154EDFF807
S315000055D85890012111709046636A23F004036362B0
S315000055E83068381AFFF748FDFFF79CFD3846FFF785
S315000055F8BDFD3268A768636DB91A9B1A99F8002031
S315000056080AB19942E8D2002388F80030FFF79CFDDA
S315000056182846BDE8F84301F08CBE00BF00200440D0
S31500005628D8220020DC220020E0220020044B1B6840
S3150000563800EB8000A3EBE00080F30800704700BF92
S3150000564894230020174B402870B59C6824DD502809
S31500005658B4BF012302231449144A154DDE00314410
S3150000566803C982E80300134A324492E80300012C76
S3150000567885E8030003D10B4A4AF6E8519160012BED
S315000056880CD0022B0CD0002002F01EFA012C02D1FD
S31500005698044B00229A6070BD0023DCE70120F3E783
S315000056A80220F1E700300E409C230020DC23002076
S315000056B80C240020B4230020FFF7C4BF044B4FF08E
S315000056C84042DA621A6B22F040421A63704700BF02
S315000056D800300E402C48F0B5002203682B4D1146C9
S315000056E854592CB11E68AC18002E36D12346012118
S315000056F80832302AF4D101B103602549254E0B68DA
S315000057080022144695592DB11F68B518002F2BD1C4
S315000057182B4601240832302AF4D104B10B60006804
S315000057281D4B026842B3DA69007922F0FF02024390
S31500005738DA611A6B42F0804209681A630A68164BE6
S31500005748F2B1DA69097922F47F4242EA0122DA6182
S315000057581A6B42F000421A63F0BD1E792779B742E8
S3150000576884BF23460121C3E71F7995F804C0BC45C9
S315000057783CBF2B460124CDE71A6B22F08042DBE7BB
S315000057881A6B22F00042E6E7CC230020DC23002037
S31500005798D02300200C24002000300E40064B186A47
S315000057A8C0B20523C000B0FBF3F0044B1B68181AFF
S315000057B800F3070040B2704700300E4098230020DF
S315000057C810B5144C226B616A0A4010D5124B1B683F
S315000057D81A682AB1002119605960FFF7DFFF904760
S315000057E84FF00043E362BDE81040FFF773BF530074
S315000057F8F9D50A4B1B681A6832B10021196059603D
S31500005808FFF7CCFF01219047024B4FF08042DA6246
S31500005818E9E700BF00300E40D0230020CC2300204B
S31500005828FFF7CEBF2D4B37B501221A700021302263
S315000058382B482AF00AFD302200212A482AF005FDC5
S31500005848294A2A4B13602A492A4A13600A684B6D6B
S31500005858C2F30742FF2A02D0DBB2FF2B01D1902305
S31500005868192202EB8201244803EBD1010160DB0017
S315000058780521B3FBF1F31344204A01A8136002F093
S31500005888ABFB9DF80530012B1BD14120FFF7CEFE5F
S315000058981B4C1C49207139202160FFF7C7FE0546BD
S315000058A85020FFF7C3FE184A2073157391604820ED
S315000058B8A160FFF7BBFE10751161FFF76FFFFFF7D9
S315000058C8C1FEFFF7FBFE114B0122C3F880211A60C7
S315000058D8FFF700FF002003B030BD00BF9023002073
S315000058E8DC2300200C240020CC230020D423002015
S315000058F8B081E00FD02300209423002098230020B5
S315000059089C230020C1560000B423002000E100E0DB
S3150000591838B141B1013AB2F5006F044838BF0020EA
S315000059287047034870470148704700BF037000F08E
S31500005938027000F00D490E4A0B7810B54BB9C2E952
S315000059480033C2E9023301240C7042F82300002018
S3150000595810BD002352F823100029F6D08142F4D056
S315000059680133042BF6D10348F2E700BF4C2400208C
S315000059783C240020027000F038B504460D4601F0BC
S31500005988D2FCA28892B222B92A6001F0D2FC06485B
S3150000599838BD6388142202FB034308332B6001F0E9
S315000059A8C8FC0020F4E700BF0B7000F038B50446C9
S315000059B80D4601F0B8FCA3889BB223B92B6001F011
S315000059C8B8FC0C4838BD6388E188142202FB0343FF
S315000059D808332B6063885A1C92FBF1F301FB1323EF
S315000059E89BB26380A388013B9BB2A38001F0A1FC14
S315000059F80020E7E70B7000F07FB5012380F82C3014
S31500005A0890F8323093B90C4A036803920022049046
S31500005A1802924A680192012200920A680169806826
S31500005A281C33FFF7D7F907B05DF804FB012BEAD062
S31500005A38002380F82C30F6E7916200007FB5012339
S31500005A4880F82D3090F8323083B9026834320D4B25
S31500005A5803930023049002934B6801930123009358
S31500005A680B68C1684068FFF79BF907E0012B02D174
S31500005A7802682832EBE7002380F82D3007B05DF87E
S31500005A8804FB00BF915A0000F7B5906A01A91446B5
S31500005A98FFF772FF144B984220D0019B00251D6129
S31500005AA89D6001F040FC019AD668074626B1D2E906
S31500005AB8002329462046B04701A9A06AFFF776FFCA
S31500005AC8A06A83889BB263B101A9FFF755FF0199C4
S31500005AD82046FFF7B3FF384601F02BFC012003B040
S31500005AE8F0BD84F82D30F6E70B7000F0427E3023C7
S31500005AF85343044A1A44437F03EBC2039B001868C6
S31500005B08C0B270471CA0104213B51D4A002352F8B4
S31500005B182340617F81420ED00133042BF7D102B0B6
S31500005B2810BD0028FBD19DF80730002BF7D0606820
S31500005B38FFF76AF9F3E794F83130022BEFD12046E4
S31500005B48FFF7D4FF637D2075022BE8D194F82E3039
S31500005B5803F0FF02002BE2D102A9606801F8012DCB
S31500005B68FFF7B2F9237D1BB194F82F30002BD8D05C
S31500005B78002384F82F306068FFF766F9CFE700BF87
S31500005B883C24002090F8323053B903680122DA60C9
S31500005B981A69D007FCD55A6F42F001025A67704756
S31500005BA8012B0CD103685A6C9107FCD401225A6068
S31500005BB89A68D207FCD55A6D42F001025A657047B9
S31500005BC890F832303BB903685A6F22F001025A67DF
S31500005BD80222DA607047012B09D103685A6C9207D2
S31500005BE8FCD45A6D22F001025A6502225A607047A7
S31500005BF810B50446FFF79EF80021201DFFF728F888
S31500005C08014608B1044810BD04F10800FFF720F862
S31500005C180028F8D0F6E700BF0E7000F0F8B5044685
S31500005C2817460D4601F07FFBA388E2889A4206468E
S31500005C3805D800233B6001F07CFB1648F8BD238895
S31500005C48142202FB0343083305F1100C2A4603CA43
S31500005C58624518605960154603F10803F6D11068C5
S31500005C6818602388E188142202FB034308333B604B
S31500005C7823885A1C92FBF1F301FB13239BB2238062
S31500005C88A38801339BB23046A38001F052FB002063
S31500005C98D4E700BF0A7000F073B504460D46C07D10
S31500005CA8E67E002934D001230422314601F096FF0E
S31500005CB801230222217F207E01F090FF94F83130E3
S31500005CC8022B16D100230122617F607E01F086FF38
S31500005CD800230422A07EA17F01F080FF0123627FBA
S31500005CE8607E01930093114601F02CFF002002B05C
S31500005CF870BD032BFAD100230122617F607E01F07B
S31500005D086DFF00230422A17FA07E01F067FFEDE767
S31500005D180B460A46314601F061FF2B462A46217F8B
S31500005D28207E01F05BFF94F83130022B10D12B4610
S31500005D382A46617F607E01F051FF2B462A46A07EE7
S31500005D48A17F01F04BFF627F607E01950123C9E7C1
S31500005D58032BCBD12B462A46617F607E01F03EFF9E
S31500005D682B462A46CFE790F8323013B903681869EC
S31500005D787047012B1CD103689B6803F00200DA0701
S31500005D8848BF40F00100590748BF40F008001A070D
S31500005D9848BF40F02000D90648BF40F040009A06A8
S31500005DA848BF40F080005B0603D540F400507047BA
S31500005DB8002070472DE9F3410D460446002879D0A6
S31500005DC801F0B1FA012D06463BD1A36A9B889BB226
S31500005DD8002B3DD06068FFF757F80023A06A84F8C7
S31500005DE82D3083889BB273B101A9FFF7C5FD0199D0
S31500005DF86068364F0831FFF78FF8019B1F61A06A6C
S31500005E0883889BB253BB2046FFF7ADFF8304FAD5C0
S31500005E18023D012D10D8A068FFF736F80023606A06
S31500005E2884F82C3083889BB23BBB94F83130032B23
S31500005E3802D02046FFF7C4FE304601F07AFA002069
S31500005E4809E0022D38D1636A9B889BB2002BDFD10B
S31500005E5801F06FFA1E4802B0BDE8F08101A9FFF70C
S31500005E68A5FD019BD3F80C80B8F1000FC7D09B683D
S31500005E78002239462046C047C1E76946FFF77CFD40
S31500005E880099A068114F0831FFF746F8009B1F617B
S31500005E98606A83889BB2002BC7D06946FFF786FDE8
S31500005EA8009BDD68002DF3D09B680022394620460A
S31500005EB8A847EDE70748CEE7032DA9D1A36A9B8833
S31500005EC89BB2002B86D1636A80E700BF097000F099
S31500005ED8087000F0027000F0436A9888C0B27047F4
S31500005EE82DE9F3410546406A84889846A4B2002302
S31500005EF80E461746CDE900333CB16946FFF73CFD2F
S31500005F0801A90446A868FFF707F8009971B16CB9AA
S31500005F184868019BC01A3860C8F800300B683360BF
S31500005F282846FFF720FF02B0BDE8F0810021C8F837
S31500005F38001039603160F3E7836A9888C0B2704709
S31500005F482DE9F3410546806A84889846A4B2002361
S31500005F580E461746CDE900333CB16946FFF70CFDFE
S31500005F6801A904466868FEF7D7FF009971B16CB9B4
S31500005F784868019BC01A3860C8F800300B6833605F
S31500005F882846FFF7F0FE02B0BDE8F0810021C8F808
S31500005F98001039603160F3E7007D70472DE9F04164
S31500005FA804460E461746FFF7B3FC804650BB08204A
S31500005FB801F0DEF90546A26A93889BB213B194F8FC
S31500005FC82E3013B394F8322022BB23681D6915F0CE
S31500005FD8020533D0012384F83030002A3FD13744F4
S31500005FE8BE42206836D103699E06FCD555B994F899
S31500005FF83230002B42D123685A6F22F002025A67C8
S315000060080822DA604046BDE8F081002DD4D0FEF7BC
S31500006018A5FFD0E7012A1BD123689D6815F0020564
S31500006028D8D1596C8807FCD4042159609968890726
S31500006038FCD5596D41F002015965CBE70421D960B9
S3150000604819698907FCD5596F41F002015967C1E7FB
S315000060580025BFE716F8011B02F0FCF8C0E7012A85
S31500006068D0D13744B742206803D183681907FCD5D5
S31500006078BCE716F8011B01F0ECFEF3E7012BC1D1D2
S3150000608823685A6C9207FCD45A6D22F002025A65AC
S3150000609808225A60B6E7000010B50446B0B190F879
S315000060A82E3033B990F83130022B0AD06068FEF7EB
S315000060B8ABFE94F82E300133DBB284F82E30002084
S315000060C810BDFFF713FD0028F3D1EFE70048F7E707
S315000060D8027000F010B50446D0B190F82E30CBB15E
S315000060E890F82E30012B06D190F83130022B0AD0C9
S315000060F86068FEF7A9FE94F82E30013BDBB284F8FF
S315000061082E30002010BDFFF7F1FC0028F3D1EFE791
S315000061180148F7E70148F5E7027000F0057000F05E
S3150000612837B590F83150022D044618D1A37F407D2B
S3150000613801229A40A37E30215943134B0B4410B9D0
S3150000614803F1806303E0012805D103F1C0631A60F7
S31500006158002003B030BD217D0029F6D1F0E7012DDE
S31500006168F6D1037D73B911238DF80730FFF794FF35
S315000061782A460DF107012046FFF710FF2046FFF7D4
S31500006188A9FFE5E71323EFE70CA0004090F83130AC
S31500006198032B05D00229417518BF0175FFF7C0BF4B
S315000061A800487047057000F010B5044600283AD03C
S315000061B80321FFF7FFFD00212046FFF7E7FF002137
S315000061C82046FFF769FD94F8323003BB23680A229C
S315000061D8DA600021206A00F06DFD94F83130032B57
S315000061E803D00021607FFEF715FF6068FEF77CFD8F
S315000061F8A068FEF779FDFEF757FD636A0020188050
S3150000620858809880A36A18805880988010BD012B02
S31500006218DFD1206801F009FE23685A6C9207FCD486
S315000062280A225A60D5E70148F0E700BF027000F07D
S31500006238F0B587B004461646FFF76AFB0546F0B97F
S31500006248CDE9011604936A460E4B606A039601A9C6
S315000062580593FFF7E3FC054688B994F82C3073B923
S315000062682046FFF78FFC00992046FFF7C5FB94F8F8
S315000062783130032B03D025752046FFF751FF2846FA
S3150000628807B0F0BD017000F073B5506A01A9144655
S31500006298FFF772FB334B98422FD094F83200019BDC
S315000062A8002836D12268116C11F4007128D02E49C5
S315000062B8196198604FF40073936401F034F80199FA
S315000062C8CD68064635B14A688B682046D31A0A68EF
S315000062D80969A84701A9606AFFF768FB606A8588AB
S315000062E8ADB2002D2FD001A9FFF746FB0199204634
S315000062F8FFF782FB304601F01CF8012002B070BDA2
S31500006308106CC5051BD51948186199604FF4807340
S31500006318D2E7012813D12268D16A11F0800106D08C
S31500006328114919610021996080235363C5E7D06A32
S31500006338400604D50D48186199604023F5E7002208
S315000063481A619A60B9E7012323752046FFF7E8FE2C
S3150000635894F8313084F82C50032BCBD02046FFF725
S315000063682FFCC7E70B7000F00D7000F00C7000F002
S315000063782DE9F041094F04460D460FCF88B001AE0E
S315000063880FC697E8070086E80700002C00F034825D
S3150000639845B9034E304608B0BDE8F0812405030030
S315000063A8037000F034220021204629F04EFF2046D3
S315000063B8FFF7C0FA06460028ECD12B7C84F831306A
S315000063C8C64A2B682360934284F8320040F07B81EA
S315000063D8C34B2362C34BE3604FF440232361D5E9E3
S315000063E806230026626216805680968084F82C6002
S315000063F8A3621E805E809E806B6803936B89ADF8EE
S315000064081430AB89ADF81230AB7B8DF81030012112
S31500006418EB7BB54884F82D6084F82F6005278DF846
S3150000642816308DF8117000F045FC0121AF4800F0D8
S3150000643841FC0121206A00F03DFC01A928688DF87D
S31500006448046001F0C9FE28686A7A816F2B7ADFF842
S315000064588CC221F4F85121F01F01114341EA0321AE
S315000064688167032141672068604540F04781BB4248
S3150000647816D9981F042840F25D81A3F10B00B84293
S3150000648840F25A81A3F11100062840F25781A3F180
S315000064981801062940F254811F2B14BFFF263E46D9
S315000064A8042AE67540F24E81511F042940F24C81B8
S315000064B8A2F10A01052940F24981A2F11001062933
S315000064C840F24681A2F11701072940F243811F2AAB
S315000064D814BFFF2100212176002B58D0012B56D05E
S315000064E8022B54D0032B52D0042B50D0052B4ED060
S315000064F8062B00F03981072B00F03881082B00F0B5
S315000065083781092B00F036810A2B00F035810B2BD9
S3150000651800F040810C2B00F01F810D2B00F01E812E
S315000065280E2B00F01D810F2B00F01C81102B00F0A4
S315000065381B81112B00F01481122B00F01381132BF1
S3150000654800F01281142B00F01181152B00F0108138
S31500006558162B00F00F81172B00F00E81182B00F078
S315000065680D81192B00F00C811A2B00F00B811B2BC7
S3150000657800F00A811C2B00F009811D2B00F0088110
S315000065881E2B00F007811F2B0CBF0723FF23E37682
S31500006598002A00F01381012A00F01281022A00F075
S315000065A81181032A00F01081042A00F00F81052AC0
S315000065B800F0F880062A00F0F780072A00F0F68037
S315000065C8082A00F0F580092A00F0F4800A2A00F06B
S315000065D8FF800B2A00F0FE800C2A00F0DD800D2AD1
S315000065E800F0DC800E2A00F0DB800F2A00F0DA804B
S315000065F8102A00F0D380112A00F0D280122A00F067
S31500006608D180132A00F0D080142A00F0CF80152AF2
S3150000661800F0CE80162A00F0CD80172A00F0CC8034
S31500006628182A00F0CB80192A00F0CA801A2A00F02E
S31500006638C9801B2A00F0C8801C2A00F0C7801D2AC2
S3150000664800F0C6801E2A00F0C5801F2A14BFFF234B
S31500006658002323776B7C6376AB7C6377EB7CA3762E
S315000066682B7DA37701212046FFF716FB0646002857
S315000066787FF490AE00F057FE2F7C032F804640F043
S31500006688AB802B682A8CDA675A6E42F004025A6687
S315000066985A6F42F030025A6728684FF0FF33836416
S315000066A82B7C032B0CBF0521042101F06BFD2B6805
S315000066B84FF44062DA602046FFF79AFA06464046EB
S315000066C800F037FE66E60A4A93427FF462AE094B4B
S315000066D82362094BE3604FF450237FE60000014034
S315000066E80022040001000C004041050000250A00B4
S315000066F8000401400032040001000D00DFF804C167
S3150000670860457FF446AE052B7FF6CAAE981F04286F
S3150000671810D9A3F10B0005280ED9A3F111000628FC
S315000067280CD9A3F1180106290AD91F2B14BFFF2675
S315000067380526B5E60126B3E60226B1E60E46AFE61D
S315000067483E46ADE60021C6E60121C4E60221C2E6C0
S315000067580321C0E60521BEE6072318E7082316E746
S31500006768092314E70A2312E70B2310E70C230EE785
S315000067780D230CE70E230AE70F2308E7002306E795
S31500006788012304E7022302E7032300E70423FEE6C6
S315000067980523FCE60623FAE608235AE7092358E701
S315000067A80A2356E70B2354E70C2352E70D2350E739
S315000067B80E234EE70F234CE700234AE7012348E759
S315000067C8022346E7032344E7042342E7052340E779
S315000067D806233EE707233CE7022F7FF45DAFFEF76B
S315000067E80BFC607F0549FEF715FCA67526756775CF
S315000067F82046FFF795FC4FE7014ECBE5115B0000FD
S31500006808027000F00004014090F83120012A10B50A
S31500006818034610D102290ED0827D8A4201D100207A
S3150000682810BD997511B9FFF755FCF8E70129F6D19E
S31500006838FFF732FCF3E70148F2E700BF057000F006
S31500006848F0B587B004461646FFF762F8054600BB62
S31500006858CDE9011604936A460F4BA06A039601A96F
S315000068680593FFF7DBF9054698B994F82D3083B9F7
S3150000687800F059FDA36A9B889BB2064633B100997E
S315000068882046FFF7DBF8012384F83030304600F065
S3150000689850FD284607B0F0BD017000F070B588B00D
S315000068A80D220021294C2A4E04A829F0CEFC0025E9
S315000068B80223012127488DF81010CDE901550395CB
S315000068C88DF80A3000F0F6F9294601AA204601F0AB
S315000068D8F0FB4FF6FF73E3618DF81250354604A9B5
S315000068E8204601F093FB1C4800F0C4FA9DF81230CC
S315000068F8D8400133DBB20A2B30608DF8123002D84B
S31500006908164B9842EBD81648164C00F0B3FA1649BF
S31500006918B1FBF0F12868154A0025E1FB0045002384
S315000069282046294629F0CEFA114B084A1860114B21
S3150000693800201870936923F0100393610E4B4FF4EF
S315000069488062C3F880211A6008B070BD00800140DB
S3150000695850240020000204004041050080841E00E7
S315000069687000020020A1070000B0710B40420F0022
S31500006978542400205824002000E100E01E4BF7B5FF
S3150000698819681E4C1E4A1F4E0025E0FB014520468D
S315000069982946002329F096FADFF86CC04FF6E8542A
S315000069A800254FF6E75E4FF0FF378D4208BF844259
S315000069B811D380B260B1144A516A89B2536A9BB244
S315000069C8ADF80630BDF806305B1A9BB29842F5D88A
S315000069D8002003B0F0BDDCF8242092B2DCF82430A5
S315000069E89BB2ADF80430BDF804309B1A9BB27345D0
S315000069F8F4D980197941D8E75024002020A107004E
S31500006A0840420F001802FFFF00800140044BDA687D
S31500006A18D20604D510225A61024B01221A70704719
S31500006A2800800140582400202D4B002A70B52D4DBA
S31500006A38446B08BF1D462C4B14BF102600269842EF
S31500006A483AD102293FD004D8B9B1012921D000236F
S31500006A582DE0062931D0812935D00329F7D1234BDA
S31500006A681A6819681B68120C1B0C03F0F00302F471
S31500006A78FE421A43C1F3034318E01D490B680A682E
S31500006A8803F4FE4302F00F021A430B6803F0F00307
S31500006A980CE0174A1368116812681B0C120C02F0F6
S31500006AA8F00203F4FE431343C1F303421343B34016
S31500006AB82C400D4A2343536370BD0E4B1A681B685E
S31500006AC802F00F02E2E7094A13681168126803F434
S31500006AD8FE4301F00F010B4302F0F002E6E700BFA8
S31500006AE80080FFFFFFFF0080002000401482E00FB7
S31500006AF81082E00F1882E00F38B50D460223836036
S31500006B08002289780446FFF78FFF2A796878697921
S31500006B18130243EA006343EA0143E97843EAC103FF
S31500006B28E97909B143F00053297A09B143F004031E
S31500006B38A97909B143F00203697A09B143F001035F
S31500006B48F32AA97806D129B903289CBF23F07063D4
S31500006B5843F0806348B20028ACBF43EA411343F0D0
S31500006B68E00323616369002823F4F21323F0070383
S31500006B78BCBF21F080010B43297843EA4143E97AF7
S31500006B8809B143F4804363616301640103F18443FB
S31500006B9804F18444A97A9960F32A04F5C8640CBF01
S31500006BA801230023236038BD0C4B984210D90C4BA7
S31500006BB8984210D9022201230A490B600A49D1F8E2
S31500006BC8003123F0807343EA0263C1F8003170474D
S31500006BD800221346F0E70122FBE700BF0048E80160
S31500006BE80090D0034000C84300400E400A490B4BB2
S31500006BF888425A680BD90A4988420AD902F0407174
S31500006C085A6822F0407242EA01625A6070470021CF
S31500006C18F6E70121F4E700BF40787D0100000E4049
S31500006C28005A620238B5064C41F67133256C236466
S31500006C3801F086FBFFF7DAFF0DB10023236438BDA8
S31500006C4800000E40044BD3F84421D20703D4D3F8EE
S31500006C5840211042FBD1704700400E400C4AD2F842
S31500006C689030516A0B4B21F0300141F0100110B5FC
S31500006C785162146BC0F3C31103310F2903EA0403ED
S31500006C8828BF0F21034343EA0173136310BD00BFF6
S31500006C9800400E4000F8FF0F38B5054C41F6713339
S31500006CA8256C2364FFF7A2FF0DB10023236438BDCA
S31500006CB800000E40C0F30322013A38B50546092AFA
S31500006CC813D8DFE802F023131212051619121C2036
S31500006CD8104C0020C5F3043508B1FFF7B3FF04F1E3
S31500006CE8047405EBC404A400216038BD00200A4CD6
S31500006CF8F0E70120094CEDE71020094CEAE74FF4CC
S31500006D088030084CE6E70020074CE3E70020074CF4
S31500006D18E0E700BFB0400E40C0400E40E0400E40E5
S31500006D28E8400E40F0400E4050410E4000400E40F4
S31500006D3800F00F000138072848D8DFE800F0040FF4
S31500006D481947232D4735244BD3F8943003F007030E
S31500006D58023B022B3CD8214AD05C70471E4BD3F825
S31500006D68803003F00703013B032B33D81C4AF3E7B3
S31500006D78194BD3F8843003F00703013B032B29D8BA
S31500006D88184AE9E7144BD3F8883003F00703013BA8
S31500006D98032B1FD8144ADFE70F4B1B6F13F0010FA5
S31500006DA814BF0920072070470B4BD3F85C3103F05A
S31500006DB83003202B06D0302B06D0102B0CBF072013
S31500006DC8012070470420704708207047002070474C
S31500006DD8052070470120704700400E40400503001B
S31500006DE843050300470503004305030008B50146AC
S31500006DF8FFF79EFF1B4B994211D01B4B994212D0AD
S31500006E081A4B994204D11A4BD3F8800000F00700B8
S31500006E180138032824D8DFE800F00A0E1612144BAE
S31500006E28D3F88400F2E7124BD3F88800EEE7BDE802
S31500006E38084001F0FBBABDE8084001F0FDBABDE81C
S31500006E48084001F0F6BA01F0A3FA094BD3F800316D
S31500006E58C3F300635A1C01239340B0FBF3F008BD4B
S31500006E680020FCE7030020000500240002001E00A5
S31500006E7800400E4000F47810B0F5801F08B500F009
S31500006E88828016D8B0F5802F35D005D868B1B0F510
S31500006E98003F3BD0002008BDB0F5402F3CD0B0F5F0
S31500006EA8602F5CD0B0F5202FF4D1BDE8084001F082
S31500006EB84BBAB0F5F01F37D012D8B0F5B01F38D09E
S31500006EC8B0F5D01F40D0B0F5A01FE3D13448FFF786
S31500006ED88DFF344BD3F8303103F00F03D840DAE78F
S31500006EE8B0F5101F39D0B0F5481F3FD0B0F5001FD8
S31500006EF8D0D12D4819E001F027FA2A4BD3F80C31E6
S31500006F08C3F308230133B0FBF3F0C4E701F01CFA1E
S31500006F18244BD3F80831F3E701F016FA214BD3F8DE
S31500006F281431C3F30423EDE72048BDE80840FFF712
S31500006F385DBF1E48FFF75AFF1A4BD3F8202102F00F
S31500006F480F0201239340DEE71748FFF74FFF154B63
S31500006F58D3F8282102F00302F3E71148E5E71448BD
S31500006F68FFF7E6FE07280ED009289DE71148FFF728
S31500006F78DFFE072807D0082808D004288AD1BDE8EC
S31500006F88084001F017BA0C4B186884E701F0DCF9E1
S31500006F98044BD3F80031C3F3042303FB00007AE75C
S31500006FA80500240000400E400300200002001E00D9
S31500006FB806000E00B80032009C1B00200E4B5A6AD1
S31500006FC812F0300F04D0202913D0302900D011B97F
S31500006FD84FF4400200E0094AD3F8901032EA010162
S31500006FE8FAD1520246BFD3F8A000C0F38020012090
S31500006FF870474FF40002EFE700400E40FF03E10739
S3150000700802280AD129B1064B4FF48060C3F8A800BC
S31500007018596612B10220FFF7D1BF0120704700BFA1
S3150000702800400E40F8B504284ED8DFE800F00A0301
S31500007038116D7200802640240623072500294FD0AB
S3150000704846E04FF400764FF4807408230925F5E7E7
S31500007058002942D0314C636A13F0300F35D1636A88
S31500007068DB0705D5636A23F0300343F01003636238
S31500007078042402230325294E3466294E33449B00F3
S315000070881F68002FFCD0FAB13544AD002B68002BE1
S31500007098FCD0022818D1B9B1204E716A11F001014D
S315000070A818D001222021FFF7ABFFD6F89C700122E9
S315000070B800210220FFF7B6FFC7F30A00FFF7CEFD4F
S315000070C834662B68002BFCD0F8BD04240223032564
S315000070D80021D0E7FFF772FFE7E70826022303251A
S315000070E80E4901200E6600FA03F3D1F89000184203
S315000070F8FBD1002AE8D00123084A03FA05F5D2F89D
S3150000710890302B42FBD1DFE70124022600232546D7
S3150000711894E720261024042305258FE700400E4017
S315000071288004F21000F00F00013810B5072842D885
S31500007138DFE800F00F043D413B5B4166494C0139ED
S31500007148092938D8DFE801F04F383F37374637374F
S315000071583735023903292ED8DFE801F02402181E34
S315000071680120032401221146FFF75CFFFFF75AFDB1
S315000071783D4B3E485C67FFF77DFEFFF715FD01F0C6
S3150000718807F90021BDE81040FFF786BD3848FFF72C
S315000071980BFD02200446E5E73548FFF705FD012407
S315000071A80320DFE700200424DCE7324CC7E7324C33
S315000071B8C5E70423236010BD012211460020FFF70E
S315000071C831FF0223F6E7012211461046FFF72AFF90
S315000071D80123EFE701F0DCF8FFF7E6FC274B012275
S315000071E81A600323E6E70023E4E7072904D0092900
S315000071F8E1D11D4B012201E01B4B00221A67DAE799
S3150000720801390729D7D801A353F821F0677200007E
S31500007218BF710000BF71000059720000BF71000005
S31500007228BF7100004B7200003572000003220E4940
S31500007238D1F85C3123F0300343EA0213C1F85C311C
S31500007248B9E7012211460420FFF7ECFE0122EEE71A
S31500007258012211460220FFF7E5FE0222E7E7002297
S31500007268E5E700BF80400E4000400E4000050A00DA
S315000072780148E80188400E4084400E400016C84385
S3150000728810B504461120FFF753FD01220021022004
S31500007298FFF7C8FE1A4A217C536A23F00103022924
S315000072A808BF43F001035362164B21781960936AAD
S315000072B8E17A23F007030B439362A188637A43EAD2
S315000072C8C123D362136BA07A217A03F07F63034349
S315000072D8E08843EAC02343EAC11303310F2928BFD4
S315000072E80F2143EA01731363A37B617B1B0143EA06
S315000072F80133E17B0B43217B43EA0143536310BD12
S3150000730800400E40A004C843EFF3108072B67047E1
S3150000731800B962B67047602383F31188704700236B
S3150000732883F311887047EFF31180602383F3118884
S31500007338704780F311887047EFF31083DB0706D494
S31500007348EFF311805F2894BF0020012070470120C9
S31500007358704700004109054A00F01F0352F8210052
S31500007368D840C04300F00100704700BF00E100E0CC
S3150000737810B50446EFF31083DB0733D4FFF7EAFFB3
S3150000738800282ED1002CA7BF04F1604404F56144FF
S3150000739804F00F04144BACBF94F800231A5D52098D
S315000073A8EFF3118313B1B2EB531F1BD20F4C636873
S315000073B8C3F30803ABB1103BDBB259B20029B5BF22
S315000073C803F00F0301F16043043B03F56143B6BFC5
S315000073D81B1993F80003187E4009824234BF002027
S315000073E8012010BD0120FCE714ED00E000ED00E0EF
S315000073F81848194BC26C1B88C2F303222833013282
S3150000740802EB820103EB5303B3FBF1F3C16C013BBF
S31500007418072B21F0EE6128BF072341F4801141EACA
S315000074280363C3640D4BB3F90030002B10DB28331C
S31500007438510801EB420203EB5303B3FBF2F3026D6F
S31500007448072B28BF072322F0700242EA03130365BD
S31500007458704700BF00300E406224002064240020DC
S31500007468084B1A78013A012A0BD8074A126C02F01F
S315000074780302012A03D105490A68D203FCD503226F
S315000074881A7070476C24002000300E407C300E4085
S31500007498054A064BD16C1960D36C23F47F4343F439
S315000074A8EE43D364FFF7A4BF00300E4068240020E3
S315000074B808B5054BD3F89020044B11201A60FFF746
S315000074C837FC034B187008BD00400E405C240020B2
S315000074D86D240020114A38B545F60E03104CD2F833
S315000074E88051C2F88031216821F0AA01C905C90D69
S315000074F811660C4A1178052902D01120FFF712FEF1
S315000075082368DA075EBF054B02221A66EB0742BFFD
S31500007518024B0022C3F8802138BD00BF00400E4050
S315000075285C2400206D24002010B5044608B1FFF73E
S31500007538BFFF0C4A136943F004031361FFF7A8FF62
S31500007548FFF78EFF30BF084B1A68084BDA64FFF75F
S315000075584FFF1CB1BDE81040FFF7BCBFBDE81040A7
S3150000756800F016BF00ED00E06824002000300E4051
S3150000757810B5044608B1FFF79BFF134BD3F88021DB
S31500007588D20748BF002245F60E01C3F8801148BF4E
S31500007598C3F880210D4A136943F004031361FFF70A
S315000075A877FFFFF75DFF30BF094B1A68094BDA64AE
S315000075B8FFF71EFF1CB1BDE81040FFF78BBFBDE803
S315000075C8104000F0E5BE00BF00400E4000ED00E0B0
S315000075D86824002000300E400378002B437870B5ED
S315000075E80E4C14BF04260026002B8378A16914BF0D
S315000075F802250025002B037921F03F0143EA010308
S31500007608C17814BF08220022012908BF43F00103EC
S3150000761833432B431343A36170BD00BF00300E40B4
S31500007628134B9A6FD207FCD41B6C13F003031EBFCF
S31500007638104A01211160834203D108B90D4B186025
S31500007648704723B9012802BF0B4B02221A70084A59
S315000076581146936FDB07FCD4136C23F00303034333
S3150000766813648B6FDB07FCD4003018BF0120E5E7F5
S3150000767800300E40B40AC6436C24002070B51D4D78
S315000076884AF6E852AC69AE69AA60A86924F440349F
S3150000769810F0010044F4003446F4403607D12B6C50
S315000076A803F00303013B012B01D8FFF7B9FFAB69D0
S315000076B8DB070FD572B6104B4AF6E8521A600F4A26
S315000076C8136843F080031360A2F58872136843F4C5
S315000076D880731360FFF7DCFEFFF7C2FE054B9C6163
S315000076E89E619C619E619C619E619C619E619C619C
S315000076F870BD00BF00300E4090310E4098310E40EC
S31500007708A0F5E163B3F5966F2DE9F04703D900219B
S315000077180846BDE8F0875F4C5F4BD4F86851DB6CD0
S31500007728B0F5E16F1FBF4FEA156AC5F307484FF476
S3150000773896694FF4E16701BFC5F3072A5FFA85F832
S315000077484FF416794FF49667B0F5E166C3F3017CFA
S3150000775818BF012646EA0C2E40F201139E455BD05F
S31500007768BEF5817F09D2BEF1010F1BD05DD3BEF5F0
S31500007778807F5DD000252B4619E040F201239E4507
S3150000778850D005D8BEF5007FF4D1D4F870310BE09F
S31500007798BEF5407F4FD040F201339E45EAD1D4F87A
S315000077A878313BE0D4F87431C3F30725DBB2C71B45
S315000077B8AAEB080E07FB0EFEBEFBF9FEC644D6452D
S315000077C8A5D8A5EB030807FB08F7B7FBF9F73B4471
S315000077D8AB424FF000079AD882B1DFF8BC80D8F8E0
S315000077E85C5025F4FE4525F00205B0F5E16F45EA43
S315000077F80E2518BF02273D43C8F85C50002946D01D
S31500007808226DD2B2032A19D8B0F5E16FD4F87C21DB
S315000078181FD0C2F307221DE0D4F874311D0EC3F33E
S315000078280743C4E7D4F87831BEE7D4F86C31BBE730
S31500007838D4F86C31F2E7D4F87031EFE7BCF1020FF7
S31500007848D4F880211ED0BCF1030F1ED0BCF1010F65
S31500007858DFD0D2B2120312F4702F7FF458AF0E4C59
S31500007868E06E20F470400243E266626E22F4FF7214
S31500007878E72B22F0010228BFE723324342EA4303FB
S31500007888636645E7C2F30742E4E7120EE2E7012121
S315000078983EE700BFB081E00F00300E40194B1A6F6B
S315000078A8D96CC90702F0070214D5012A12D9132880
S315000078B823D9143813288CBF102308231148013BF9
S315000078C8C26C190322F47F4241EA03231343C364BB
S315000078D8FFF78EBDDB6CD90706D4012A04D8092820
S315000078E80BD90A380928E6E7064BDB6C13F00103C7
S315000078F8E4D0012A03D82728DDE70423DEE700239E
S31500007908DCE700BF00300E40054A064B1B68136FC4
S3150000791823F007031843044B10671888FFF7BEBF08
S3150000792800300E408009C64360240020534B37B50B
S3150000793802229A639B6B03F00F039342054603D01A
S315000079480024204603B030BD4D4BD3F86C310133CB
S315000079581DD04C4B1A68043B1B681A604A4B1A68C0
S31500007968043B1B681A60494B1A68043B1B681A607B
S31500007978474B1A68043B1B681A60464B1A68043B57
S315000079881B681A60444B1A68043B1B681A60E9882E
S31500007998B5F90C004A2965D9B1F5FA7F64D340F6E2
S315000079A8C313994294BF4FF000514FF04051334CE6
S315000079B8E36C23F0405323F001030028A8BF43F0EB
S315000079C801030B43E364E36E43F08073E366334BD2
S315000079D8186800B10420FFF797FF236E23F0C04311
S315000079E82366E36C43F0060301A8E36400F0F4FAA7
S315000079F89DF80500012812D19DF80430022B0ED8F7
S31500007A0827490B785BB9274A136843F001031360CB
S31500007A18236E254A1A40254B134323660870244BC8
S31500007A2829891980234BB5F90C201A80224BA8887E
S31500007A381880FFF733FFAB7BCBB1012B1BD001229C
S31500007A4811466888FFF75CFE044600283FF478AFC5
S31500007A58AB7A1A4A6878003318BF01231360FFF718
S31500007A68DFFD6EE70021A2E74FF080519FE7034B49
S31500007A78134A9A65E3E7014B124AFAE700300E40CB
S31500007A88B081E00F3C80E00F4480E00F4C80E00FAF
S31500007A985480E00F5C80E00F6480E00F8009C643E5
S31500007AA86C24002044300E40000F0EF0B4C0400B8A
S31500007AB86224002064240020602400209407C64322
S31500007AC877402057372110B7144B1A6830B500286D
S31500007AD814BF02250025012A06BF4AF6E851196097
S31500007AE8002202280E4804680CBF24F0740444F0EF
S31500007AF8740404600B48046844F0080404600A4CE3
S31500007B08216821F4406141EA85212160016821F05C
S31500007B18080101600AB100221A6030BD90310E409A
S31500007B2864310E409C310E403C400E40044AD2F867
S31500007B38443423F003031843C2F84404704700BFD3
S31500007B4800A00040072A70B501F003014FF00F05A9
S31500007B5823D896001A4CB540256004F10074B0404D
S31500007B6820600320B04001FA06F61649086001F1C4
S31500007B7800710E601449114489000B609DF810309D
S31500007B88C1F88030012303FA02F2104BC3F824240B
S31500007B989DF81430C1F8003370BDA2F10804A400A2
S31500007BA80B4EA54035600B4DA04028600320A04031
S31500007BB801FA04F40849086001F100710C60D9E77C
S31500007BC800A4004408A400448020851000A00040BA
S31500007BD804A4004404A400460CA40044F0B54AB129
S31500007BE830261E4C012546438D4034440BB304F120
S31500007BF8C06425603024444304F18044072904F511
S31500007C08204419D865688E000F27B74025EA07056E
S31500007C1802FA06F63543656052B9012202FA01F105
S31500007C28302250430D4A0244A3B102F1C0621160EA
S31500007C38F0BD04F18064DCE701F18045083DA668E3
S31500007C48AD000F27AF4026EA070602FA05F53543C9
S31500007C58A560E1E702F18062E9E700BF0CA00040F9
S31500007C68074B4FF48072C3F88020BFF34F8FBFF3E2
S31500007C786F8F044B04480021D9661962FFF71AB8BA
S31500007C8800E100E000200E4000450A00034B0344D3
S31500007C989B0081F001011960704700BFA001F11037
S31500007CA810B5044601211148FFF704F8B4F801306D
S31500007CB822785BBA9BB243EA02630D4A136000233B
S31500007CC81362D36253634FF00043D3664FF0FF331A
S31500007CD89366084A4FF48071C2F88011E3785B0115
S31500007CE8DBB282F80833116010BD00BF00450A00F8
S31500007CF800200E4000E100E02DE9F041254D91F805
S31500007D080BE091F80AC00F7B0C464FF03008C3B25F
S31500007D18012608FB00509E402368497BC0F8803046
S31500007D284FEA0E5343EA0C4343EA475322F0030251
S31500007D38C0F88810C0F88430C0F89820AE66FFF7FF
S31500007D48F2FAEB6E3343EB66237A13B16B6B33436C
S31500007D586B63637A13B1EB6A3343EB6222792B6860
S31500007D6822B1D243120262F47F42134062790AB109
S31500007D7843EA0223A2790AB123EA0203E27902B1AD
S31500007D881343044A1360044B1E60D663BDE8F041F2
S31500007D98FFF7CFBA00200E4028200E4410B5C0B217
S31500007DA801248440FFF7BFFA054AD36E23EA040389
S31500007DB8D366044B1C60BDE81040FFF7BABA00BF93
S31500007DC800200E4020200E44F8B5C3B201259D4080
S31500007DD80446FFF7A8FA0A4B30221E6E9F6A02FB7A
S31500007DE80434D4F88C40FFF7A4FA3D4206D1C4F314
S31500007DF80A1008B9354200D10130F8BD0020FCE769
S31500007E0800200E40036CDB0702D4436C0B42FCD106
S31500007E187047CB435B0003F00A0310B541EA03023F
S31500007E280221FFF7EFFF426010BD436C002BFCD127
S31500007E3801220264EA22426040F2F9720360C360DA
S31500007E480361436183634263C36343658365036474
S31500007E58704710B502460C469368DB06FCD54021F0
S31500007E681046FFF7CFFF946210BD0000044B41F6A1
S31500007E7871321A649A6822F001029A60704700BF4C
S31500007E8800000E40034B9A6822F001029A60002215
S31500007E981A64704700000E4010B590FAA0F2054C1F
S31500007EA82368B2FA82F223EA000091400143216076
S31500007EB810BD00BF00500E40014B01229A6070476A
S31500007EC800500E40194BF0B55C68194D194E1A4F03
S31500007ED800231846D6F800C0EA181CF0040F5168AB
S31500007EE85A5908D1B2F5806F03D018D8B2F5007F79
S31500007EF801D141F48071D7F800C01CF4807F18BF07
S31500007F0821F01C01144202D0214208BF1043083355
S31500007F18482BDFD1C30348BF20F01C00F0BDB2F5E3
S31500007F28006FE6D0B2F5803FE2E700BF00500E4092
S31500007F384C050300E841E00F88300E408B784A78FC
S31500007F489B0143EA82030A781343CA7843EA021379
S31500007F580A7943EAC2234A7943EA02338A79043022
S31500007F6843EA42430001014A135070470020044087
S31500007F78427801790378002A827870B514BF0426FE
S31500007F880026002AC27814BF10250025002A427947
S31500007F984FEA023242EA012242EA0302837914BF17
S31500007FA820240024002BC37942EA034343EA06034C
S31500007FB8027A43EA050314BF4FF400410021234324
S31500007FC8002A14BF4FF4003200220B431343014A20
S31500007FD8136070BD002004400B4A536911699B0069
S31500007FE803F03C03C1F381110B438370136903F05B
S31500007FF83F0343709369D26903F0F003C2F3031297
S3150000800813430370704700BFD0FF0FE02DE9F04F10
S315000080180C780CB902234360002343624B78CA7874
S3150000802891F802B08D7A91F808A091F8069091F827
S315000080380780002B4B7A4FEA024214BF4FF0400EDE
S315000080484FF0000E42EA0B62002B14BF8023002378
S3150000805842EA0A02002DCD7A42EA892214BF4FF07D
S31500008068200C4FF0000C42EA0822002D0D7B42EA54
S315000080780E0214BF102700271343002D0D794979E6
S3150000808843EA0C0314BF082600263B43002D14BF01
S315000080984FF4005500253343002914BF4FF0805193
S315000080A800212B430B4303600CB101234360BDE859
S315000080B8F08FF0B5537814781B0643EA84639479F5
S315000080C82343947843EA0443D47843EA043314797F
S315000080D843EA8423547943EA0423D479002C147A96
S315000080E814BF4FF080470027002C547A14BF4FF076
S315000080F800560026002C947AD27A43EA027343EAA1
S31500008108070314BF102500253343002C01F106018F
S3150000811814BF042400242B43090123434350F0BD14
S3150000812870B5054616461C4619B91448FEF7A2FE50
S315000081380146202C08D001D8ECB170BD402C18D0CF
S31500008148602CFAD1042200E0082206FB02F35A0842
S3150000815802EB4112B2FBF3F2094B203A03EAC202E0
S315000081682B6823F060032B602B681C432C606A6124
S31500008178E3E70622E9E71022E7E700BF40410500EA
S31500008188F8FF7F00CB435B0003F00A03C360C160BE
S315000081987047000040F6AA63C36041F20502002357
S315000081A8036042600A4A83604361C3648264094A81
S315000081B803669042436702F580628367C36701D00E
S315000081C8904200D103659042836508BFC365704736
S315000081D8F9FF01000000014038B505460C46FFF7D7
S315000081E8D9FF8B7C1BB1036843F080430360E37CB3
S315000081F81BB1237D43F08003AB65228A637B13435F
S31500008208E28913436B60D4E90112237B2846FFF702
S3150000821887FF637D1BB12B6843F480332B60A37DF6
S31500008228E27D1B07120502F4E00203F0E043134364
S315000082382B666B6F23F030036B676A6F237E1343DD
S315000082486B672378EB6038BD03691B06FCD5C069EC
S31500008258C0B2704703695B06FCD541637047036883
S31500008268DB060FD447F231538268D20701D5013BAA
S31500008278FAD1036803F001038B421EBF00F10470B4
S315000082884001016070470368D90707D583689A07D4
S3150000829804D48368DB07FCD40123436070474B781A
S315000082A8CA78002B8B782DE9F04114BF4FF0020EE7
S315000082B84FF0000E002B14BF04230023002A0A796E
S315000082C891F807800C7814BF4FF0080C4FF0000C9B
S315000082D8002A4A7914BF20270027002A8A7914BF62
S315000082E840260026002A0A7A4FEA022242EA083283
S315000082F891F8098042EA0402CC7A897A42EA08426D
S3150000830842EA016242EA0E0243EA020343EA0C0326
S3150000831843EA070314BF102500253343002C14BF76
S315000083284FF0004400242B43234347F2315281681F
S31500008338C90701D5013AFAD10360BDE8F08100000A
S315000083480048704700F049020D4AD2F8943003F00D
S315000083580703032B11D0042B03D0022B0BD1094B97
S3150000836800E0094B1868D2F80031C3F3042301333F
S31500008378B0FBF3F07047054BF4E74FF40040F2E723
S3150000838800400E40A41B0020AC1B0020A81B0020A8
S3150000839808B5FFF7D9FF054BD3F80831C3F308230F
S315000083A80133B0FBF3F0024B186008BD00400E40E5
S315000083B8A01B0020014B1868704700BFA41B0020B3
S315000083C8054B1860054BD3F8943003F00703022BCE
S315000083D801D1FFF7DDBF7047A41B002000400E4007
S315000083E80E4B0F4A9A60D3F8882042F47002C3F8FD
S315000083F888200C4B5A6D42F400525A651A6C22F0CA
S3150000840803021A64084A136823F00103136052F83A
S31500008418143C23F0805342F8143C704700ED00E00A
S315000084280042000000300E4074300E404FF4004009
S3150000843870474FF47A707047014B1868704700BF51
S31500008448AC1B002008B50C4B198A40F6A73291429E
S315000084580AD11B8B1B0A012B0CD101280AD840F222
S31500008468022013F089FF05E040F628031B689B6984
S31500008478DB02F2D4012008BD00000000094B198A6E
S3150000848840F6A732914206D11B8B1B0A012B07D057
S315000084984FF6FF70704740F628031B6858897047E7
S315000084A800F002B800000000054B198A40F6A73212
S315000084B8914217BF40F62803588B1B6858897047A6
S315000084C80000000070B51038C6B0EE2801F28186AB
S315000084D8DFE810F07B0369037F0E7F0ED109B8032E
S315000084E8C303320341037F0E04047F0E7F0E30045C
S315000084F83401A302B9020C014C037F0E7F0EB707A5
S315000085087F0E7F0ECF01FC01150C840C440C210C48
S31500008518020C710CB10C7F0E7F0EDC04620696010C
S315000085286B050005C6054106F3057F0E7F0E7F0E17
S315000085387F0E7F0EA9039B05E7047F0E7F0E7F0E35
S315000085487F0E7F0E7F0E7F0E430187016E017F0E21
S315000085587F0E7F0E7F0E7F0E7F0E7F0E7F0E7F0EA5
S315000085687F0E7F0E7F0E7F0E00073B049106AB063B
S315000085784D046204C704AE047F0E9804E9067F0E14
S315000085888108E709010AFC082009C708490A800981
S315000085987F0E5C0ACA0B5009260A9D0A910AE20850
S315000085A8CC08800A7F0EA301270330027F0E7F0EB8
S315000085B8CA0683047F0E7F0E3905230DC00C420DB3
S315000085C85A0D360D4E0DE40CFA0CCC0C0D0DD80CCC
S315000085D87F0E7F0E7F0E7F0E7F0E7F0E7F0E7F0E25
S315000085E82B067F0E7F0EE003CE037F0EEF007F0E75
S315000085F87F0E660D7F0EA00D640EE80D1E0E360E5C
S31500008608C60D7F0EB80ADA0A7F0E7F0E7F0E7F0E22
S315000086187F0EA008030EBB08C907040868083808B7
S315000086287F0E7F0E7F0E76072D077F0EBC07FB0792
S3150000863851072708470B66027D0298027F0E7F0EB8
S31500008648F90A7F0E300B570B7F0E7F0E7F0E7F0EBB
S31500008658A7094A08F2035B027F0E20012C0895073A
S315000086688907E307EF0739074507A107AC07B30BE7
S31500008678CF0BEB0BDF0BA30B9E0B7F0E7F0E7F0E34
S315000086887F0E7F0E2A0E7F0E830D7F0E470E580E25
S31500008698B30DBA067F0E7F0E7F0E7404DD067F0EBD
S315000086A87F0E5E03F2021503DD02C4027F0E11027D
S315000086B81A0712AB01930AAB00930CAA24ABC9495B
S315000086C8012007F003F9BDF848309DF828202499C1
S315000086D8BDF8300022F0F2FA46AAC34902F8EC0DBA
S315000086E8002007F0F3F8012046B070BD24AB0CAAB1
S315000086F8BE49012007F0EAF824999DF8300014F0E5
S315000087085FFD46AAB84902F8D00D002007F0DEF84A
S315000087180120E9E70CAB24AAB549012007F0D6F8F1
S315000087289DF83010249819F0FBFE46AAAE4902F8C7
S31500008738D00D002007F0CAF80120D5E724A806F0D6
S315000087489BFE24A81CF0EAFB46AAA74902F8D00D0E
S31500008758002007F0BBF80120C6E70CAAA2490120B1
S3150000876807F0B4F824A99DF8300014F027FD46AAAE
S315000087789D4902F8D00D002007F0A8F824A9082082
S3150000878806F064FE9DF8980006F028FEBDF89A00EB
S3150000879806F034FE9DF89C0006F020FE9DF89D002C
S315000087A806F01CFE9DF89E0006F018FE01209BE7C9
S315000087B886230BAA8C498DF84830012007F086F8E5
S315000087C824A99DF82C0014F0FEFC46AA12AB02F868
S315000087D8E80D88490093002024AB07F077F80120BC
S315000087E882E724A822F086FE46AA7F4902F8D00D21
S315000087F8002007F06BF824A807F031F8012073E78A
S3150000880824A822F073FE46AA24AB02F8D00D7A49B2
S31500008818002007F05BF8012066E70CAA72490120E0
S3150000882807F054F824A99DF8300024F01FF946AA49
S315000088386D4902F8D00D002007F048F8BDF8900001
S3150000884806F0DCFD9DF8920006F0C8FD9DF8930041
S3150000885806F0C4FD9DF8940006F0C0FD9DF895004D
S3150000886806F0BCFD08200DF1960106F0EFFD01208B
S315000088783AE724A912A814F067FC46AA12AB02F834
S31500008888E80D5D49002007F021F824A9082006F024
S31500008898DDFDBDF8980006F0B1FD9DF89A0006F0DA
S315000088A89DFD9DF89B0006F099FD9DF89C0006F03D
S315000088B895FDBDF89E0006F0A1FD9DF8A00006F006
S315000088C88DFD299806F0AEFD01200DE712AC0823B0
S315000088D8214624A88DF8303014F05EFC46AA0CAB6D
S315000088E802F8EC0D454900930020019424AB06F0EC
S315000088F8EDFF0120F8E60CAA3B49012006F0E6FF49
S3150000890824A99DF8300019F0BBFE46AA364902F89C
S31500008918D00D002006F0DAFF9DF8900006F05EFD07
S315000089289DF8910006F05AFD9DF8920006F056FD56
S315000089380120D9E60CAA2C49012006F0C7FF24A974
S315000089489DF8300023F04CF846AA274902F8D00DC6
S31500008958002006F0BBFFBDF8900006F04FFDBDF8FD
S31500008968920006F04BFD9DF8940006F037FD9DF841
S31500008978950006F033FD9DF8960006F02FFD9DF84C
S31500008988970006F02BFD0120AEE614F083FB46AAFD
S31500008998154902F8880D002006F098FF0120A3E685
S315000089A80BAA1149012012AC06F090FF224624A911
S315000089B89DF82C0014F070FB46AA24AB02F8E80DCB
S315000089C80F490094002006F081FF01208CE614F080
S315000089D867FB46AA044902F8880D002006F076FFD0
S315000089E8012081E6D40503001E060300D90503000D
S315000089F8F6050300690F0300F2050300DC05030012
S31500008A08E005030014F04AFB46AAC04902F8880D9F
S31500008A18002006F05BFF012066E60CAABB49012090
S31500008A2806F054FF24A806F027FD24A99DF8300077
S31500008A381CF07CFB46AAB54902F8D00D002006F0CA
S31500008A4845FF012050E61DF0ADF946AAAF4902F8E8
S31500008A58880D002006F03AFF012045E612AB009388
S31500008A680BAA0CABAA49012006F030FF9DF8482056
S31500008A789DF830109DF82C0025F0D4FE46AAA3498F
S31500008A8802F8880D002006F021FF01202CE612AB23
S31500008A980CAAA049012006F019FF9DF948109DF877
S31500008AA8300025F0BDFE46AA984902F8880D002038
S31500008AB806F00CFF012017E612AB02930CAB0193EC
S31500008AC80BAB00930DF126020AAB9349012006F081
S31500008AD8FDFE9DF848409DF930309DF82C209DF804
S31500008AE828109DF82600009425F096FE46AA874988
S31500008AF802F8880D002006F0E9FE0120F4E512AA26
S31500008B088249012006F0E2FE9DF8480025F086FE1F
S31500008B1846AA7E4902F8880D002006F0D7FE0120F5
S31500008B28E2E523F095FF46AA784902F8880D002069
S31500008B3806F0CCFE0120D7E524A806F01DFD24A8E2
S31500008B481CF058FB46AA714902F8D00D002006F021
S31500008B58BDFE0120C8E519F059FD46AA6B4902F881
S31500008B68880D002006F0B2FE0120BDE512AA67496D
S31500008B78012006F0ABFE9DF848001BF0F5FB46AA5F
S31500008B88624902F8880D002006F0A0FE0120ABE538
S31500008B9809F03FFD46AA5D4902F8880D002006F057
S31500008BA895FE0120A0E512AA5849012006F08EFE7E
S31500008BB89DF8480014F0D3FE46AA544902F8880DD9
S31500008BC8002006F083FE01208EE50AAB04930DF122
S31500008BD82603039309AB029324AB019312AB0093CC
S31500008BE80DF122020CAB4D49012006F06FFE9DF8EF
S31500008BF8284002949DF8264001949DF82440BDF82B
S31500008C089030BDF84820BDF830109DF82200009439
S31500008C1813F034F846AA3D4902F8EC0D002006F098
S31500008C2855FE012060E524A806F026FE24A822F0B9
S31500008C385FFC46AA354902F8D00D002006F046FE2C
S31500008C48012051E524AA0120354906F03FFE354B9F
S31500008C58BDF890201A80012046E524AA0120304953
S31500008C6806F034FE304BBDF890201A8001203BE513
S31500008C7812AA2649012006F029FE9DF848001BF095
S31500008C88BDFC46AA214902F8880D002006F01EFE02
S31500008C98012029E512AA2549012006F017FE9DF9AB
S31500008CA8480019F02DFD46AA184902F8880D00203B
S31500008CB806F00CFE012017E512AA1449012006F059
S31500008CC805FE9DF8480014F0E3F946AA0F4902F894
S31500008CD8880D002006F0FAFD012005E50CAB00938F
S31500008CE80BAA24AB1249012006F0F0FD9DF83020AE
S31500008CF824999DF82C0019F019F946AA034902F897
S31500008D08D00D002006F0E2FD0120EDE41E0603006A
S31500008D18F1050300E4050300E7050300ED0503007C
S31500008D28DE05030010200020162000209E0F0300F9
S31500008D38F505030019F0BAF946AABF4902F8880DE5
S31500008D48002006F0C3FD0120CEE412AABA4901208C
S31500008D5806F0BCFD9DF8480021F08DFB46AAB649F1
S31500008D6802F8880D002006F0B1FD0120BCE40823B6
S31500008D780CAAB1498DF84830012006F0A7FD24A9B0
S31500008D889DF8300022F0E8F8002012AB24AAAB497F
S31500008D9806F09CFD0120A7E412AAA749012006F0C7
S31500008DA895FD9DF8480022F0EFF846AAA44922F856
S31500008DB8880D002006F08AFD012095E424A81BF002
S31500008DC879F846AA9C4902F8D00D002006F07EFDE7
S31500008DD824A806F098FB012086E446AB082203F88F
S31500008DE8E82D964924AA012006F070FD24A822F051
S31500008DF8CFF946AA904902F8D00D002006F066FD84
S31500008E08012071E40CAA8C49012006F05FFD24A913
S31500008E189DF8300014F06AF946AA874902F8D00D81
S31500008E28002006F053FD24A806F05AFB01205BE457
S31500008E38082312AA82498DF83030012006F046FD33
S31500008E4824A9BDF8480019F0BDFD46AA0CAB02F8E6
S31500008E58EC0D7C490093002024AB06F037FD012079
S31500008E6842E446AB082203F8E82D744924AA0120F7
S31500008E7806F02CFD24A819F089FD46AA704922F8A7
S31500008E88D00D002006F022FD01202DE420F00CF97B
S31500008E9846AA694902F8880D002006F017FD012048
S31500008EA822E40CAB009324AA0BAB6749012006F019
S31500008EB80DFD9DF830209DF82C10BDF8900013F09C
S31500008EC867FB46AA5C4902F8D00D002006F0FEFCB6
S31500008ED8012009E408AB0BAA5C49009301200CABFE
S31500008EE806F0F4FC24A806F0E3FA09AB12AACDE9C9
S31500008EF8003202930DF121020DF12203544901209B
S31500008F0806F0E4FC129B03939DF8243002939DF827
S31500008F18223001930AAC9DF821309DF82020BDF837
S31500008F2830100093BDF82C00049424AB14F04AF8D2
S31500008F3846AA234602F8F20D4649002006F0C6FC6A
S31500008F480120FFF7D1BB08238DF821308DF8263094
S31500008F580DF1220302930BAB01930DF1210300934C
S31500008F6808AA12AB3C4901200AAE0CAD24AC06F0A7
S31500008F78ADFC9DF82230BDF82C209DF82000029605
S31500008F8812A90195009414F08DF846AA0DF126034E
S31500008F9802F8F40D304900930020CDE90156234626
S31500008FA806F094FC0120FFF79FBB0CAA2449012078
S31500008FB806F08CFC24A806F07BFA0DF1260312AA0B
S31500008FC8CDE9003202930DF1220209AB20490120B6
S31500008FD806F07CFC129901910BAC9DF826109DF8C1
S31500008FE824309DF822200091BDF83000029424A96F
S31500008FF813F090FF46AA234602F8F00D1549002003
S3150000900806F064FC0120FFF76FBB0CAB24AA1349DA
S31500009018012006F05BFC9DF83010BDF890001DF0AD
S3150000902827FA46AA044902F8D00D002006F04EFC9D
S315000090380120FFF759BB00BF1E060300E823030003
S31500009048DE050300690F0300F9050300FD050300AB
S3150000905807060300F20503000106030003060300E2
S3150000906824A806F025FA0AAB12AACDE90132039321
S315000090780DF1260300930DF1220209ABC449012024
S3150000908806F024FC129801900CAC9DF828009DF877
S3150000909826309DF824209DF822100090029424A8DA
S315000090A813F044FF46AA234602F8EC0DB9490020FE
S315000090B806F00CFC0120FFF717BB24A806F0F8F908
S315000090C80DF1260312AACDE90332059309AB0293E3
S315000090D80DF1220301930CAB009308AA0DF12103AD
S315000090E8AD49012006F0F2FB129803909DF8260080
S315000090F802909DF8240001900BAC9DF82200BDF863
S3150000910830309DF821209DF820100090049424A862
S3150000911813F024FF46AA234602F8F00D9D490020C5
S3150000912806F0D4FB0120FFF7DFBA0CAA009224ABA5
S315000091389A49012006F0CAFB24999DF8300013F0DD
S3150000914800FF46AA964902F8D00D002006F0BEFB9D
S315000091580120FFF7C9BA0CAA9249012006F0B6FB0E
S3150000916824A806F0A5F90AAA009212AB8B49012099
S3150000917806F0ACFB129B9DF82820BDF8300024A908
S3150000918813F054FF46AA864902F8EC0D002006F0B3
S315000091989DFB0120FFF7A8BA0CAB0DF1220282490C
S315000091A8012006F093FB24A806F082F90DF12603A8
S315000091B812AA019300927D4909AA012006F086FBAE
S315000091C8129A01920BAC9DF826209DF82430BDF822
S315000091D8301000929DF82200029424AA13F092FE01
S315000091E846AA234602F8F00D6A49002006F06EFBEF
S315000091F80120FFF779BA08238DF830300CAB0BAA9B
S3150000920800936B4924AB012006F060FB24A99DF866
S315000092182C0021F0E1FF46AA614902F8D00D002092
S3150000922806F054FB0120FFF75FBA24AB12AA5E4989
S31500009238012006F04BFB9DF84800BDF8901021F080
S3150000924875FE0120FFF750BA24A81AF05FFE46AA59
S31500009258534902F8D00D002006F038FB24A806F082
S3150000926852F90120FFF740BA46AB082203F8E82D69
S3150000927812AA00924F4924AA012006F027FB24A827
S315000092889DF8481021F0D8FF0120FFF72DBA24AA2F
S315000092984349012006F01AFB9DF890001EF096FA45
S315000092A80120FFF721BA0CAA3D49012006F00EFB62
S315000092B824A806F01FF924A99DF8300013F02CFF06
S315000092C846AA374902F8D00D002006F0FFFA012019
S315000092D8FFF70ABA0BAB24AA01930092364912AAE1
S315000092E8012006F0F3FA249A9DF82C10BDF84800E0
S315000092F813F014FC46AA2A4902F8E80D002006F0E5
S31500009308E5FA0120FFF7F0B912AA2549012006F06F
S31500009318DDFA9DF848001BF053F946AA204902F8E1
S31500009328880D002006F0D2FA0120FFF7DDB902F019
S31500009338BBFE46AA1A4902F8880D002006F0C6FAAE
S315000093480120FFF7D1B90BF047FD46AA1B4942F8A1
S31500009358880D002006F0BAFA0120FFF7C5B90BF010
S3150000936841FD46AA154942F8880D002006F0AEFAD6
S315000093780120FFF7B9B90BF08AFA46AA084902F89C
S31500009388880D002006F0A2FA0120FFF7ADB900BF4C
S3150000939806060300F20503000C0603006E0F030021
S315000093A81E060300DE050300270603000806030061
S315000093B8690F03001D06030014060300DA050300FF
S315000093C812AACD49012006F081FA9DF8480002F05C
S315000093D86DFE46AAC84902F8880D002006F076FAFE
S315000093E80120FFF781B924AAC449012006F06EFAC4
S315000093F8BDF890000BF0E4FC0120FFF775B924AA2C
S31500009408BD49012006F062FA9DF890000BF04AF873
S315000094180120FFF769B924AAB949012006F056FACE
S3150000942824980BF0E5FC0120FFF75EB924AAB4499D
S31500009438012006F04BFA24980BF0E0FC0120FFF718
S3150000944853B90BF0DDF90120FFF74EB924A912A88C
S315000094580BF00EFA12A806F0C5F824A806F0F3F8E1
S315000094680120FFF741B924A806F098F80CAB0BAA1F
S31500009478A449012006F02AFA9DF930209DF82C10FF
S3150000948824A802F007FE46AA9B4902F8D00D002040
S3150000949806F01CFA0120FFF727B90AF05DFF46AA75
S315000094A8954902F8880D002006F010FA0120FFF70A
S315000094B81BB90BF067F846AA8F4902F8880D0020F9
S315000094C806F004FA0120FFF70FB924A806F0A3F85E
S315000094D824A80BF0D6F90120FFF706B912A9102027
S315000094E805F06EFF05F0A8FF249005F061FF0DF169
S315000094F895018DF89400102005F062FF0DF1A50185
S31500009508102005F05DFF24A912A80AF096FF46AAC6
S31500009518794902F8E80D002006F0D8F90120FFF78E
S31500009528E3B80CF0C6FB0120FFF7DEB824AA72499F
S31500009538012006F0CBF99DF890000BF083F8012086
S31500009548FFF7D2B824AA6E49012006F0BFF924987D
S315000095580BF040F846AA684902F8D00D002006F03C
S31500009568B5F90120FFF7C0B805F066FF249005F0AD
S315000095781FFF0DF195018DF89400102005F020FFCE
S315000095880DF1A501102005F01BFF24A80AF050FFD5
S3150000959846AA594902F8D00D002006F097F901208D
S315000095A8FFF7A2B80CAB009324AA0BAB56490120CF
S315000095B806F08CF99DF830209DF92C1024980AF0B5
S315000095C877FF46AA4C4902F8D00D002006F07EF92E
S315000095D80120FFF789B846AB082203F8F02D0BAA3D
S315000095E800924A4912AA012006F070F924A910200F
S315000095F805F0E6FE24AA9DF82C1012A814F044FCE7
S3150000960846AA3D4902F8E80D002006F05FF9012058
S31500009618FFF76AB846AB082203F8EC2D3C4912AAB4
S31500009628012006F053F924A9102005F0C9FE24A943
S3150000963812A825F07FFA46AA2F4902F8E80D00205D
S3150000964806F044F90120FFF74FB814F081FC46AA4A
